S00F00006E6578613433332E73726563CF
S11300000C9438000C9455000C949E010C945500EB
S11300100C9455000C9455000C9455000C94550008
S11300200C9455000C9455000C94F8010C94550054
S11300300C9455000C9455000C9455000C945500E8
S11300400C945E010C9455000C9455000C945500CE
S11300500C9455000C9455000C9455000C945500C8
S11300600C9455000C9455000C9455000C945500B8
S113007011241FBECFEFD4E0DEBFCDBF12E0A0E05D
S1130080B1E0E4EFFCE002C005900D92AA30B107A4
S1130090D9F723E0AAE0B2E001C01D92A836B20766
S11300A0E1F70E9483020C9478060C94000086E128
S11300B091E09F938F930E9469030F900F9008958E
S11300C0CF93DF93613021F488608093030103C0F0
S11300D0877F8093030184E081BB83E992E00197E9
S11300E0F1F700C0000011BAC7E2D3E22197F1F79B
S11300F000C00000E0E0F1E0A4E0B1E078E060E0FE
S113010051E044E045C080818923E9F041BBC3E963
S1130110D2E02197F1F700C0000011BAC7E6D0E1A0
S11301202197F1F700C0000041BBC3E9D2E0219759
S1130130F1F700C0000011BAC3E8D3E02197F1F74A
S113014000C000001CC041BBC3E9D2E02197F1F715
S113015000C0000011BAC3E8D3E02197F1F700C052
S1130160000041BBC3E9D2E02197F1F700C00000D1
S113017011BAC7E6D0E12197F1F700C00000990F4A
S11301802150310909F0BFCF3196EA17FB0721F05E
S1130190272F362F952FB7CFDF91CF910895CF9288
S11301A0DF92EF92FF920F931F93CF93DF937C0123
S11301B004E011E0C0E0D0E0F801819191918F0159
S11301C0FC0101900020E9F73197AF01481B590B5E
S11301D0B7010E945B03892B11F02196EDCFC43047
S11301E0D10578F0FF92EF9285E291E09F938F938F
S11301F00E9469030E9457000F900F900F900F9078
S113020053C0209721F0C130D10549F13FC0D1E05E
S1130210F7018581813309F0D0E0F701C381C05330
S11302201F92DF931F92CF938BE391E09F938F9361
S11302300E9469036D2F8C2F0E9460006D2F8C2FFC
S11302400E9460006D2F8C2F0E9460000E94570056
S11302500F900F900F900F900F900F9025C0109259
S11302600F021092100310920D0210920C0289E5F5
S113027091E00E94860386B7816086BF8CB7886050
S11302808CBF87B5816087BD19BA0EC0DF93CF9349
S113029089E791E09F938F930E9469030E9457001E
S11302A00F900F900F900F9080E0DF91CF911F91EE
S11302B00F91FF90EF90DF90CF9008951F920F92CF
S11302C00FB60F9211242F933F934F935F936F9325
S11302D07F938F939F93AF93BF93CF93DF93EF93CA
S11302E0FF93C091100280E00E942D038D3041F4F1
S11302F081E080936103C0930A02109210020BC044
S1130300D0E0FE01EF5EFC4F808360E00E943C037E
S11303102196C0931002FF91EF91DF91CF91BF918D
S1130320AF919F918F917F916F915F914F913F9189
S11303302F910F900FBE0F901F9018951F920F9240
S11303400FB60F9211248F939F93AF93BF93EF93A4
S1130350FF9380910C0290910D02019690930D02EF
S113036080930C0280910B02811115C089B38238ED
S113037081F489B380930E0281E080930B02109282
S113038010038FEFE1E1F2E0DF011D928A95E9F7B6
S113039002C019BA22C089B319BA789B02C08F77F8
S11303A001C08068E0911003E43848F491E09E0FA6
S11303B090931003F0E0EF5EFD4F80830EC0109227
S11303C00B0281E080930F0286B78E7F86BF8CB7C5
S11303D0877F8CBF87B58E7F87BDFF91EF91BF91DB
S11303E0AF919F918F910F900FBE0F901F90189512
S11303F01F920F920FB60F9211242F933F934F9396
S11304005F936F937F938F939F93AF93BF93EF9378
S1130410FF9380910B02882399F086B78E7F86BF65
S11304208CB7877F8CBF87B58E7F87BD81E0809333
S11304300F0210920B0219BA8CE991E00E94860314
S1130440FF91EF91BF91AF919F918F917F916F91A8
S11304505F914F913F912F910F900FBE0F901F907E
S113046018956B9A2FE38EE795E0215080409040D9
S1130470E1F700C000006B982FE38EE795E0215070
S113048080409040E1F700C000000895CF93829A25
S11304908198919A639A8098429AD29A88E091E0DE
S11304A0909365038093640380E00E941903789419
S11304B01F921F921F9281E08F931F921F928CEACA
S11304C091E09F938F930E9469038DB79EB708961E
S11304D00FB6F8949EBF0FBE8DBFC4E009C08AE07A
S11304E090E00E947F030E9431020E94570009C0DD
S11304F08EE290E00E947F030E943102C150C1F756
S1130500EECFCF91089510920F020E9446020F2E53
S1130510F0E52F2EF02D0F2EFFEF8F2EF1E09F2E02
S1130520F02D0F2EFBECAF2EF1E0BF2EF02D0F2E91
S1130530F2EECF2EF1E0DF2EF02D0F2EFFEEEF2E98
S1130540F1E0FF2EF02D0F2EF1E16F2EF2E07F2E61
S1130550F02D312C05EC11E080916103882381F0AA
S11305601092610360910A0270E081E193E00E94BD
S1130570CF00E1E1F3E0DF01222D1D922A95E9F796
S113058080910F02882309F44AC0809110038823C4
S1130590F1F190E018161906BCF4E301432C512C38
S11305A089911F928F931F930F930E9469038FEF7A
S11305B0481A580A8091100390E00F900F900F9002
S11305C00F904816590664F39F938F93BF92AF928E
S11305D00E94690380910E021F928F93DF92CF9243
S11305E00E94690380910D028F9380910C028F9376
S11305F0FF92EF920E94690310920F02ADB7BEB74B
S11306001C960FB6F894BEBF0FBEADBF06C09F9236
S11306108F920E9469030F900F900E945700BFEFC2
S11306202EE984E2B15020408040E1F700C0000090
S113063093CF811109C08DE481BD12BC88E185BDD1
S113064085B5806885BD08958DE48093740010920B
S1130650750088E1809378000895811105C006B47F
S113066007FEFDCF80B50895E9E7F0E08081882397
S1130670ECF7809173000895611105C006B405FE7E
S1130680FDCF80BD0895E9E7F0E0908195FFFDCFAF
S1130690809373000895CF93C82F8A3021F460E0CB
S11306A08DE00E943C0360E08C2F0E943C0380E0BC
S11306B090E0CF910895FB01DC014150504030F0AF
S11306C08D910190801919F40020B9F7881B990BBA
S11306D00895A0E0B0E0EFE6F3E00C945106AE011B
S11306E04B5F5F4FFA0161917191AF018091640397
S11306F0909165030E94B603E2E00C946D0660914C
S11307006403709165030E94A00508950F931F93DD
S1130710CF93DF93E0916403F0916503238121FF7C
S11307201BC08C01D0E0C0E0F80181918F01609181
S1130730640370916503DB011896ED91FC911997A0
S1130740882331F00995892B79F3DFEFCFEFECCFD4
S11307508AE00995892B19F08FEF9FEF02C08D2F46
S11307609C2FDF91CF911F910F910895ACE0B0E0E1
S1130770ECEBF3E00C9441067C016B018A01FC0173
S113078017821682838181FFBFC1CE0101964C017D
S1130790F7019381F60193FD859193FF81916F0198
S11307A0882309F4ADC1853239F493FD859193FF13
S11307B081916F01853229F4B70190E00E94A00570
S11307C0E7CF512C312C20E02032A0F48B3269F099
S11307D030F4803259F0833269F420612EC08D32B6
S11307E039F0803339F4216028C02260246025C0A8
S11307F0286023C027FD29C030ED380F3A3088F433
S113080026FF07C0852D6AE00E943806582E530E35
S113081014C0832D6AE00E943806382E330E2062FD
S11308200CC08E3221F426FD6BC1206406C08C36C8
S113083011F4206802C0883641F4F60193FD8591D5
S113084093FF81916F018111BFCF982F9F7D9554A4
S1130850933028F40C5F1F4FFFE3F9830DC08336F8
S113086031F0833771F0833509F05BC022C0F801A1
S1130870808189830E5F1F4F44244394512C54017B
S113088015C03801F2E06F0E711CF801A080B18030
S113089026FF03C0652D70E002C06FEF7FEFC50136
S11308A02C870E9495052C0183012C852F77222EFD
S11308B017C03801F2E06F0E711CF801A080B180FE
S11308C026FF03C0652D70E002C06FEF7FEFC50106
S11308D02C870E948A052C012C852068222E8301F6
S11308E023FC1BC0832D90E048165906B0F4B701D1
S11308F080E290E00E94A0053A94F4CFF50127FC31
S1130900859127FE81915F01B70190E00E94A005C7
S113091031103A94F1E04F1A51084114510471F71F
S1130920E5C0843611F0893639F5F80127FF07C090
S113093060817181828193810C5F1F4F08C0608147
S11309407181072E000C880B990B0E5F1F4F2F76B9
S1130950722E97FF09C090958095709561957F4F91
S11309608F4F9F4F2068722E2AE030E0A4010E942E
S1130970D805A82EA81844C0853729F42F7EB22E96
S11309802AE030E025C0F22FF97FBF2E8F36C1F068
S113099018F4883579F0B4C0803719F0883721F01D
S11309A0AFC02F2F2061B22EB4FE0DC08B2D8460FA
S11309B0B82E09C024FF0AC09F2F9660B92E06C026
S11309C028E030E005C020E130E002C020E132E060
S11309D0F801B7FE07C060817181828193810C5F49
S11309E01F4F06C06081718180E090E00E5F1F4F51
S11309F0A4010E94D805A82EA818FB2DFF777F2EEE
S1130A0076FE0BC0372D3E7FA51450F474FE0AC049
S1130A1072FC08C0372D3E7E05C0BA2C372D03C0AA
S1130A20BA2C01C0B52C34FF0DC0FE01EA0DF11D36
S1130A308081803311F4397E09C032FF06C0B3943B
S1130A40B39404C0832F867809F0B39433FD13C0A4
S1130A5030FF06C05A2CB31418F4530C5B18B32C93
S1130A60B31468F4B70180E290E03C870E94A005CB
S1130A70B3943C85F5CFB31410F43B1801C0312C6A
S1130A8034FF12C0B70180E390E03C870E94A005C8
S1130A903C8532FF17C031FD03C088E790E002C0F7
S1130AA088E590E0B7010CC0832F867859F031FFB8
S1130AB002C08BE201C080E237FD8DE2B70190E015
S1130AC00E94A005A51438F4B70180E390E00E94C9
S1130AD0A0055A94F7CFAA94F401EA0DF11D808180
S1130AE0B70190E00E94A005A110F5CF332009F4CE
S1130AF04FCEB70180E290E00E94A0053A94F6CF71
S1130B00F7018681978102C08FEF9FEF2C96E2E177
S1130B100C945D06FC010590615070400110D8F7FB
S1130B20809590958E0F9F1F0895FC016150704031
S1130B3001900110D8F7809590958E0F9F1F08950E
S1130B400F931F93CF93DF93FB01238121FD03C0F8
S1130B508FEF9FEF28C022FF16C046815781248162
S1130B6035814217530744F4A081B1819D012F5F61
S1130B703F4F318320838C93268137812F5F3F4FF2
S1130B803783268310C0EB01092F182F0084F185C9
S1130B90E02D0995892BE1F68E819F8101969F8333
S1130BA08E83812F902FDF91CF911F910F91089504
S1130BB0FA01AA27283061F1203191F1E8946F936A
S1130BC06E7F6E5F7F4F8F4F9F4FAF4FB1E040D02E
S1130BD0B4E03ED0670F781F891F9A1FA11D680FCC
S1130BE0791F8A1F911DA11D6A0F711D811D911D01
S1130BF0A11D22D009F468943F91062E000C3019EF
S1130C00000C000C3019305D3193CEF6CF010895FD
S1130C10462F4770405D4193B3E00FD0C9F7F6CF3C
S1130C20462F4F70405D4A3318F0495D31FD405204
S1130C30419302D0A9F7EACFB4E0A695979587959A
S1130C4077956795BA95C9F7009761057105089579
S1130C509B01AC010A2E0694579547953795279525
S1130C60BA95C9F7620F731F841F951FA01D0895BD
S1130C70002480FD060E660F11F08695D1F7802DB5
S1130C8008952F923F924F925F926F927F928F922C
S1130C909F92AF92BF92CF92DF92EF92FF920F9307
S1130CA01F93CF93DF93CDB7DEB7CA1BDB0B0FB611
S1130CB0F894DEBF0FBECDBF09942A8839884888CE
S1130CC05F846E847D848C849B84AA84B984C88464
S1130CD0DF80EE80FD800C811B81AA81B981CE0F5B
S1130CE0D11D0FB6F894DEBF0FBECDBFED01089540
S1070CF0F894FFCFA2
S1130CF44EC394099601990100000002000000000B
S1130D044B03000000000A3433333E20000A5458D5
S1130D1420456E64000A2573206973206E6F742065
S1130D247265636F676E697A6564000A5458205368
S1130D34746172743A2064657649643D2564205371
S1130D44746174653D25640A000A57616974696EA7
S1130D546720666F72204F4F4B207369676E616C16
S1130D64207061636B657421000A4E4F505B693DCA
S1130D7425645D0064617461006164647200726579
S1130D8470656174730074780072780054494D304E
S1130D945F434F4D50415F766563740056657273CB
S1130DA4696F6E2E25642E25645B6275696C643AE2
S1130DB425645D0A002530327820000A2564205316
S1130DC4796D626F6C732072656365697665642EF0
S1130DD40A000A436F756E7465723D25640A000A3D
S1130DE4496E74657272757074733D25640A004E9D
S10D0DF44F20444154412E2E2E00DE
S9030000FC
